:020000040800F2
:100000000050002041080008D5060008DD06000861
:10001000E5060008ED060008F506000800000000EF
:10002000000000000000000000000000FD060008C5
:100030000907000800000000150700082107000854
:10004000890800088908000889080008890800084C
:10005000890800088908000889080008890800083C
:10006000890800088908000889080008890800082C
:10007000890800088908000889080008890800081C
:10008000890800088908000889080008890800080C
:1000900089080008890800088908000889080008FC
:1000A00089080008890800088908000889080008EC
:1000B00089080008890800088908000889080008DC
:1000C00089080008890800088908000889080008CC
:1000D00089080008890800088908000889080008BC
:1000E0008908000889080008890800080000000045
:1000F0000000000000000000000000000000000000
:0C01000000000000000000005FF808F1A3
:10010C0010B5054C237833B9044B13B10448AFF345
:10011C0000800123237010BD680000200000000047
:10012C009C33000808B5034B1BB103490348AFF3DC
:10013C00008008BD000000006C0000209C3300080B
:10014C0080B584B002AF0346FB71FA1D64230093A3
:10015C0001234E21034800F0C5FF00BF0837BD4600
:10016C0080BD00BF8400002080B584B000AF034682
:10017C000A46FB711346BB7197F9073023F00F0346
:10018C005AB297F9063013435BB2FB73FB7B43F017
:10019C000403DBB21846FFF7D3FF012000F0D2FBBB
:1001AC00FB7B23F00403DBB21846FFF7C9FF0120E9
:1001BC0000F0C8FB00BF1037BD4680BD80B584B0D1
:1001CC0000AF0346FB71FB7923F00F03FB73FB7944
:1001DC001B01BB7308237B737A7BFB7B1146184690
:1001EC00FFF7C2FF7A7BBB7B11461846FFF7BCFFBB
:1001FC0000BF1037BD4680BD80B584B000AF03464C
:10020C00FB71FB7923F00F03FB73FB791B01BB73B1
:10021C0009237B737A7BFB7B11461846FFF7A4FFFF
:10022C007A7BBB7B11461846FFF79EFF00BF103749
:10023C00BD4680BD80B500AF0120FFF7BFFF022097
:10024C0000F080FB00BF80BD80B582B000AF78604D
:10025C0039607B68002B03D07B68012B08D00FE042
:10026C003B68DBB2803BDBB21846FFF7A7FF07E029
:10027C003B68DBB2403BDBB21846FFF79FFF00BF89
:10028C0000BF0837BD4680BD80B500AF322000F0FE
:10029C0059FB0820FFF754FF052000F053FB3320D7
:1002AC00FFF78CFF052000F04DFB3220FFF786FF97
:1002BC00052000F047FB2820FFF780FF0C20FFF7FC
:1002CC007DFF0620FFF77AFFFFF7B4FF00BF80BD6C
:1002DC0080B582B000AF786006E07B685A1C7A600B
:1002EC001B781846FFF788FF7B681B78002BF4D12E
:1002FC0000BF00BF0837BD4680BD000080B483B08E
:10030C0000AF0346FB7100BF064B1B6803F0800374
:10031C00002BF9D0034AFB79536000BF0C37BD4664
:10032C0080BC70470038014080B586B000AFF860E3
:10033C00B9607A6000237B6109E07B69BA68134479
:10034C001B781846FFF7DAFF7B6901337B617A690A
:10035C007B689A42F1DB7B6818461837BD4680BD36
:10036C0080B58CB000AF0023FB6200F089FA00F07E
:10037C0033F800F0C5F800F06BF800F097F812496C
:10038C00124801F0B7FFFFF77FFFFFF753FF002183
:10039C000020FFF759FF0E48FFF79AFFFB6A5A1C23
:1003AC00FA62381D1A460B4901F0B6FF00210120F4
:1003BC00FFF74AFF3B1D1846FFF78AFF4FF47A7090
:1003CC0000F0C0FAEAE700BFFC330008B4330008C1
:1003DC00E4330008F033000880B590B000AF07F1AB
:1003EC00180328220021184601F0FBFF3B1D0022B8
:1003FC001A605A609A60DA601A610223BB610123A9
:10040C00BB621023FB6200237B6307F118031846C1
:10041C0001F0C0F90346002B01D000F093F80F2334
:10042C007B600023BB600023FB6000233B61002347
:10043C007B613B1D0021184601F02EFC0346002B6E
:10044C0001D000F07FF800BF4037BD4680BD0000F2
:10045C0080B500AF124B134A1A60114B124A5A6006
:10046C000F4B00229A600E4B0022DA600C4B4FF4BB
:10047C0080421A610A4B00225A61094B00229A6190
:10048C00074B0022DA61064B00221A62044800F086
:10049C00E5FC0346002B01D000F054F800BF80BDF2
:1004AC008400002000540040A086010080B500AFFD
:1004BC00114B124A1A60104B4FF4E1325A600E4B3A
:1004CC0000229A600C4B0022DA600B4B00221A615E
:1004DC00094B0C225A61084B00229A61064B0022F0
:1004EC00DA61054801F066FD0346002B01D000F0EF
:1004FC0029F800BF80BD00BFD800002000380140A3
:10050C0080B483B000AF0E4B9B690D4A43F00403DB
:10051C0093610B4B9B6903F004037B607B68084B76
:10052C009B69074A43F008039361054B9B6903F0F1
:10053C0008033B603B6800BF0C37BD4680BC70476E
:10054C000010024080B400AF72B600BF00BFFDE7E0
:10055C0080B485B000AF154B9B69144A43F001037E
:10056C009361124B9B6903F00103BB60BB680F4B9B
:10057C00DB690E4A43F08053D3610C4BDB6903F00B
:10058C0080537B607B680A4B5B68FB60FB6823F0E5
:10059C00E063FB60FB6843F08063FB60044AFB682C
:1005AC00536000BF1437BD4680BC7047001002403A
:1005BC000000014080B588B000AF786007F11003EF
:1005CC0000221A605A609A60DA607B681B68154AD0
:1005DC00934223D1144B9B69134A43F00803936154
:1005EC00114B9B6903F00803FB60FB68C0233B6164
:1005FC0012237B610323FB6107F1100319460B489F
:10060C0000F0A8FA084BDB69074A43F40013D361E6
:10061C00054BDB6903F40013BB60BB6800BF2037DC
:10062C00BD4680BD0054004000100240000C01404B
:10063C0080B588B000AF786007F1100300221A6013
:10064C005A609A60DA607B681B681C4A934231D10D
:10065C001B4B9B691A4A43F480439361184B9B696B
:10066C0003F48043FB60FB68154B9B69144A43F011
:10067C0004039361124B9B6903F00403BB60BB68DA
:10068C004FF400733B6102237B610323FB6107F191
:10069C00100319460B4800F05DFA4FF480633B6180
:1006AC0000237B610023BB6107F110031946054849
:1006BC0000F050FA00BF2037BD4680BD0038014025
:1006CC00001002400008014080B400AF00BFFDE7FD
:1006DC0080B400AF00BFFDE780B400AF00BFFDE702
:1006EC0080B400AF00BFFDE780B400AF00BFFDE7F2
:1006FC0080B400AF00BFBD4680BC704780B400AF73
:10070C0000BFBD4680BC704780B400AF00BFBD4683
:10071C0080BC704780B500AF00F0F8F800BF80BD1A
:10072C0080B586B000AFF860B9607A6000237B6159
:10073C000AE0AFF300800146BB685A1CBA60CAB22B
:10074C001A707B6901337B617A697B689A42F0DBB2
:10075C007B6818461837BD4680BD80B483B000AFA7
:10076C0078604FF0FF3318460C37BD4680BC70479D
:10077C0080B483B000AF786039603B684FF40052AE
:10078C005A60002318460C37BD4680BC704780B4B5
:10079C0083B000AF7860012318460C37BD4680BC8F
:1007AC00704780B485B000AFF860B9607A60002300
:1007BC0018461437BD4680BC7047000080B586B023
:1007CC0000AF7860144A154BD31A7B617B693B618F
:1007DC00134B1B68002B02D1114B124A1A60104BA1
:1007EC001A687B6813443A699A4207D201F048FEB2
:1007FC0003460C221A604FF0FF3309E0084B1B68CC
:10080C00FB60074B1A687B681344054A1360FB684E
:10081C0018461837BD4680BD00500020000400006B
:10082C00200100207802002080B400AF00BFBD463C
:10083C0080BC7047FFF7F8FF0B480C490C4A0023AB
:10084C0002E0D458C4500433C4188C42F9D3094A7A
:10085C00094C002301E013600432A242FBD301F0E7
:10086C0015FEFFF77DFD704700000020680000209A
:10087C006C3400086800002074020020FEE70000C1
:10088C0080B500AF084B1B68074A43F01003136098
:10089C00032000F02BF90F2000F008F8FFF758FEAA
:1008AC000023184680BD00BF0020024080B582B0F6
:1008BC0000AF7860124B1A68124B1B7819464FF434
:1008CC007A73B3FBF1F3B2FBF3F3184600F035F98E
:1008DC000346002B01D001230EE07B680F2B0AD8B6
:1008EC00002279684FF0FF3000F00BF9064A7B6864
:1008FC001360002300E0012318460837BD4680BD75
:10090C0000000020080000200400002080B400AF8C
:10091C00054B1B781A46054B1B681344034A13609E
:10092C0000BFBD4680BC7047080000202401002099
:10093C0080B400AF024B1B681846BD4680BC7047A4
:10094C002401002080B584B000AF7860FFF7F0FF81
:10095C00B8607B68FB60FB68B3F1FF3F05D00A4BC6
:10096C001B781A46FB681344FB6000BFFFF7E0FFDF
:10097C000246BB68D31AFA689A42F7D800BF00BF88
:10098C001037BD4680BD00BF0800002080B485B084
:10099C0000AF78607B6803F00703FB600C4BDB68EF
:1009AC00BB60BA684FF6FF031340BB60FB681A02CA
:1009BC00BB68134343F0BF6343F40033BB60044A8A
:1009CC00BB68D36000BF1437BD4680BC704700BF06
:1009DC0000ED00E080B400AF044BDB681B0A03F0B1
:1009EC0007031846BD4680BC704700BF00ED00E011
:1009FC0080B483B000AF03463960FB7197F90730C0
:100A0C00002B0ADB3B68DAB20C4997F9073012016C
:100A1C00D2B20B4483F800230AE03B68DAB20849EF
:100A2C00FB7903F00F03043B1201D2B20B441A768C
:100A3C0000BF0C37BD4680BC704700BF00E100E032
:100A4C0000ED00E080B489B000AFF860B9607A6066
:100A5C00FB6803F00703FB61FB69C3F10703042B7D
:100A6C0028BF0423BB61FB690433062B02D9FB6945
:100A7C00033B00E000237B614FF0FF32BB6902FABD
:100A8C0003F3DA43BB681A407B699A404FF0FF319D
:100A9C007B6901FA03F3D9437B680B401343184677
:100AAC002437BD4680BC704780B582B000AF7860FB
:100ABC007B68013BB3F1807F01D301230FE00A4A2D
:100ACC007B68013B53600F214FF0FF30FFF790FF25
:100ADC00054B00229A60044B07221A60002318462B
:100AEC000837BD4680BD00BF10E000E080B582B085
:100AFC0000AF78607868FFF749FF00BF0837BD4644
:100B0C0080BD80B586B000AF0346B9607A60FB73D8
:100B1C0000237B61FFF75EFF78617A68B9687869BA
:100B2C00FFF790FF024697F90F3011461846FFF772
:100B3C005FFF00BF1837BD4680BD80B582B000AFE7
:100B4C0078607868FFF7B0FF034618460837BD4653
:100B5C0080BD000080B48BB000AF7860396000239A
:100B6C007B6200233B6269E101227B6A02FA03F398
:100B7C00FB613B681B68FA691340BB61BA69FB698E
:100B8C009A4240F058813B685B689A4A93425ED027
:100B9C00984A934275D8984A934258D0964A9342B1
:100BAC006FD8964A934252D0944A934269D8944A49
:100BBC0093424CD0924A934263D8924A934246D085
:100BCC00904A93425DD8122B2AD8122B59D801A2E5
:100BDC0052F823F05B0C0008350C0008470C000899
:100BEC00890C00088F0C00088F0C00088F0C000873
:100BFC008F0C00088F0C00088F0C00088F0C00085D
:100C0C008F0C00088F0C00088F0C00088F0C00084C
:100C1C008F0C00088F0C00083D0C0008510C0008CC
:100C2C00794A934213D02CE03B68DB683B6229E0A5
:100C3C003B68DB6804333B6224E03B68DB680833C9
:100C4C003B621FE03B68DB680C333B621AE03B689D
:100C5C009B68002B02D104233B6213E03B689B682A
:100C6C00012B05D108233B627B68FA691A6109E004
:100C7C0008233B627B68FA695A6103E000233B62FC
:100C8C0000E000BFBB69FF2B01D87B6801E07B68EB
:100C9C0004337B61BB69FF2B02D87B6A9B0002E0AB
:100CAC007B6A083B9B003B617B691A680F213B699F
:100CBC0001FA03F3DB431A40396A3B6901FA03F387
:100CCC001A437B691A603B685B6803F08053002B06
:100CDC0000F0B1804D4B9B694C4A43F0010393618A
:100CEC004A4B9B6903F00103BB60BB68484A7B6AB3
:100CFC009B08023352F82330FB607B6A03F003033A
:100D0C009B000F2202FA03F3DB43FA681340FB60EB
:100D1C007B68404A934213D07B683F4A93420DD084
:100D2C007B683E4A934207D07B683D4A934201D18F
:100D3C00032306E0042304E0022302E0012300E085
:100D4C0000237A6A02F0030292009340FA6813437C
:100D5C00FB602F497B6A9B080233FA6841F8232019
:100D6C003B685B6803F48013002B06D02D4B9A680C
:100D7C002C49BB6913438B6006E02A4B9A68BB690C
:100D8C00DB43284913408B603B685B6803F400131A
:100D9C00002B06D0234BDA682249BB691343CB6086
:100DAC0006E0204BDA68BB69DB431E491340CB607D
:100DBC003B685B6803F40033002B06D0194B5A6870
:100DCC001849BB6913434B6006E0164B5A68BB6964
:100DDC00DB43144913404B603B685B6803F480337E
:100DEC00002B21D00F4B1A680E49BB6913430B60C3
:100DFC0021E000BF00003210000031100000221072
:100E0C000000211000001210000011100010024010
:100E1C000000014000080140000C0140001001409E
:100E2C0000140140000401400B4B1A68BB69DB4302
:100E3C00094913400B607B6A01337B623B681A687B
:100E4C007B6A22FA03F3002B7FF48EAE00BF00BF47
:100E5C002C37BD4680BC70470004014080B584B07F
:100E6C0000AF78607B68002B01D101232BE17B68FC
:100E7C0093F83D30DBB2002B06D17B68002283F85F
:100E8C003C207868FFF796FB7B68242283F83D2092
:100E9C007B681B681A687B681B6822F001021A6069
:100EAC007B681B681A687B681B6842F400421A60F6
:100EBC007B681B681A687B681B6822F400421A6006
:100ECC0001F032F8F8607B685B68814A934207D87E
:100EDC00FB68804A934294BF01230023DBB206E0F7
:100EEC00FB687D4A934294BF01230023DBB2002BA5
:100EFC0001D00123E7E0FB68784AA2FB03239B0C9B
:100F0C00BB607B681B685B6823F03F017B681B68D8
:100F1C00BA680A435A607B681B681B6A23F03F015E
:100F2C007B685B686A4A934202D8BB68013309E06C
:100F3C00BB684FF4967202FB03F3694AA2FB0323CE
:100F4C009B0901337A6812680B4313627B681B6838
:100F5C00DB6923F44F4222F0FF027B685B685C493B
:100F6C008B4219D8FB68591E7B685B685B00B1FB30
:100F7C00F3F3591C40F6FC730B40002B0AD0FB68B2
:100F8C00591E7B685B685B00B1FBF3F30133C3F361
:100F9C000B0351E004234FE07B689B68002B11D1BD
:100FAC00FB68581E7B6859680B465B000B44B0FB12
:100FBC00F3F30133C3F30B03002B0CBF012300230A
:100FCC00DBB212E0FB68581E7B6859680B469B002D
:100FDC000B4499000B44B0FBF3F30133C3F30B0345
:100FEC00002B0CBF01230023DBB2002B01D001230B
:100FFC0022E07B689B68002B0ED1FB68581E7B6837
:10100C0059680B465B000B44B0FBF3F30133C3F39D
:10101C000B0343F400430FE0FB68581E7B685968D0
:10102C000B469B000B4499000B44B0FBF3F30133CC
:10103C00C3F30B0343F44043796809681343CB6152
:10104C007B681B681B6823F0C0017B68DA697B68CE
:10105C001B6A1A437B681B680A431A607B681B680F
:10106C009B6823F4034323F0FF037A6811697A68C1
:10107C00D26811437A6812680B4393607B681B68D3
:10108C00DB6823F0FF017B685A697B689B691A4314
:10109C007B681B680A43DA607B681B681A687B688C
:1010AC001B6842F001021A607B6800221A647B689C
:1010BC00202283F83D207B6800221A637B68002283
:1010CC0083F83E20002318461037BD4680BD00BF74
:1010DC00A08601007F841E00FF083D0083DE1B43B9
:1010EC00D34D621080B588B002AFF8607A601A46B2
:1010FC000B467B8113463B81FFF71AFC7861FB683A
:10110C0093F83D30DBB2202B40F0E0807B690093FC
:10111C00192301227049F86800F064F90346002B8A
:10112C0001D00223D3E0FB6893F83C30012B01D1B2
:10113C000223CCE0FB68012283F83C20FB681B688F
:10114C001B6803F00103012B07D0FB681B681A68AE
:10115C00FB681B6842F001021A60FB681B681A6886
:10116C00FB681B6822F400621A60FB68212283F87A
:10117C003D20FB68102283F83E20FB6800221A6495
:10118C00FB687A685A62FB683A895A85FB685B8D02
:10119C009AB2FB681A85FB68504ADA6279897B69D6
:1011AC003A6AF86800F09CF80346002B01D0012342
:1011BC008DE000233B61FB681B685B693B61FB684E
:1011CC001B689B693B613B6966E07A69396AF86820
:1011DC0000F022FA0346002B0DD0FB681B6C042B8D
:1011EC0007D1FB681B681A68FB681B6842F4007225
:1011FC001A6001236BE0FB685B6A1A78FB681B685A
:10120C001A61FB685B6A5A1CFB685A62FB685B8D4F
:10121C009BB2013B9AB2FB685A85FB681B8D013B64
:10122C009AB2FB681A85FB681B685B6903F00403C0
:10123C00042B1BD1FB681B8D002B17D0FB685B6A42
:10124C001A78FB681B681A61FB685B6A5A1CFB689E
:10125C005A62FB685B8D9BB2013B9AB2FB685A8564
:10126C00FB681B8D013B9AB2FB681A857A69396A57
:10127C00F86800F019FA0346002B0DD0FB681B6CC4
:10128C00042B07D1FB681B681A68FB681B6842F4C7
:10129C0000721A6001231AE0FB681B8D002B94D19D
:1012AC00FB681B681A68FB681B6842F400721A60C2
:1012BC00FB68202283F83D20FB68002283F83E2047
:1012CC00FB68002283F83C20002300E00223184630
:1012DC001837BD4680BD00BF020010000000FFFFA4
:1012EC0080B588B002AFF8607A603B600B467B81BA
:1012FC00FB68DB6A7B617B69082B06D07B69012B61
:10130C0003D07B6913F5803F08D1FB681B681A6812
:10131C00FB681B6842F480721A600BE0FB681B6B65
:10132C00122B07D1FB681B681A68FB681B6842F418
:10133C0080721A603B6800937B6800224FF00111A9
:10134C00F86800F04FF80346002B0DD0FB681B68C3
:10135C001B6803F48073B3F5807F03D1FB684FF4F3
:10136C0000721A64032335E0FB681B69B3F5804FE8
:10137C0008D17B89DBB21A46FB681B6802F0FE02BF
:10138C001A611BE07B89DB11DBB203F00603DBB2D5
:10139C0063F00F03DAB2FB681B681A613B687A686A
:1013AC000E49F86800F098F80346002B01D0012391
:1013BC0010E07B89DAB2FB681B681A613B687A68BB
:1013CC000749F86800F088F80346002B01D0012388
:1013DC0000E0002318461837BD4680BD0800010008
:1013EC000200010080B584B000AFF860B9603B60CA
:1013FC001346FB7148E03B68B3F1FF3F44D0FFF765
:10140C0097FA0246BB69D31A3A689A4202D33B68F0
:10141C00002B39D1BB681B0CDBB2012B0DD1FB6847
:10142C001B685B69DA43BB6813409BB2002B0CBF93
:10143C0001230023DBB21A460CE0FB681B689B6996
:10144C00DA43BB6813409BB2002B0CBF0123002373
:10145C00DBB21A46FB799A4216D1FB6800221A635A
:10146C00FB68202283F83D20FB68002283F83E2095
:10147C00FB681B6C43F02002FB681A64FB680022BB
:10148C0083F83C20012323E0BB681B0CDBB2012B4F
:10149C000DD1FB681B685B69DA43BB6813409BB2D8
:1014AC00002B0CBF01230023DBB21A460CE0FB68B7
:1014BC001B689B69DA43BB6813409BB2002B0CBFC3
:1014CC0001230023DBB21A46FB799A4293D0002306
:1014DC0018461037BD4680BD80B584B000AFF860AB
:1014EC00B9607A603B6071E0FB681B685B6903F470
:1014FC008063B3F5806F23D1FB681B681A68FB68A7
:10150C001B6842F400721A60FB681B686FF48062FF
:10151C005A61FB6800221A63FB68202283F83D2085
:10152C00FB68002283F83E20FB681B6C43F004022E
:10153C00FB681A64FB68002283F83C20012367E0F7
:10154C007B68B3F1FF3F41D0FFF7F2F902463B68ED
:10155C00D31A7A689A4202D37B68002B36D1BB68C7
:10156C001B0CDBB2012B0CD1FB681B685B69DA43EB
:10157C00BB6813409BB2002B14BF01230023DBB2CA
:10158C000BE0FB681B689B69DA43BB6813409BB29A
:10159C00002B14BF01230023DBB2002B16D0FB68F9
:1015AC0000221A63FB68202283F83D20FB6800228E
:1015BC0083F83E20FB681B6C43F02002FB681A6426
:1015CC00FB68002283F83C20012321E0BB681B0C44
:1015DC00DBB2012B0CD1FB681B685B69DA43BB687F
:1015EC0013409BB2002B14BF01230023DBB20BE092
:1015FC00FB681B689B69DA43BB6813409BB2002BEA
:10160C0014BF01230023DBB2002B7FF46DAF00234A
:10161C0018461037BD4680BD80B584B000AFF86069
:10162C00B9607A6034E0F86800F086F80346002B65
:10163C0001D0012334E0BB68B3F1FF3F28D0FFF7A2
:10164C0077F902467B68D31ABA689A4202D3BB6810
:10165C00002B1DD1FB681B685B6903F08003802B9A
:10166C0016D0FB6800221A63FB68202283F83D2009
:10167C00FB68002283F83E20FB681B6C43F02002C1
:10168C00FB681A64FB68002283F83C20012307E006
:10169C00FB681B685B6903F08003802BC3D10023BC
:1016AC0018461037BD4680BD80B584B000AFF860D9
:1016BC00B9607A6034E0F86800F03EF80346002B1D
:1016CC0001D0012334E0BB68B3F1FF3F28D0FFF712
:1016DC002FF902467B68D31ABA689A4202D3BB68C8
:1016EC00002B1DD1FB681B685B6903F00403042B02
:1016FC0016D0FB6800221A63FB68202283F83D2079
:10170C00FB68002283F83E20FB681B6C43F0200230
:10171C00FB681A64FB68002283F83C20012307E075
:10172C00FB681B685B6903F00403042BC3D1002323
:10173C0018461037BD4680BD80B483B000AF7860CA
:10174C007B681B685B6903F48063B3F5806F1BD106
:10175C007B681B686FF480625A617B6800221A6395
:10176C007B68202283F83D207B68002283F83E2092
:10177C007B681B6C43F004027B681A647B68002254
:10178C0083F83C20012300E0002318460C37BD46AB
:10179C0080BC704780B586B000AF78607B68002B4A
:1017AC0001D1012372E27B681B6803F00103002B5B
:1017BC0000F08780924B5B6803F00C03042B0CD079
:1017CC008F4B5B6803F00C03082B12D18C4B5B68BE
:1017DC0003F48033B3F5803F0BD1894B1B6803F4C2
:1017EC000033002B6CD07B685B68002B68D1012325
:1017FC004CE27B685B68B3F5803F06D1804B1B687D
:10180C007F4A43F4803313602EE07B685B68002BC7
:10181C000CD17B4B1B687A4A23F480331360784BD2
:10182C001B68774A23F4802313601DE07B685B6898
:10183C00B3F5A02F0CD1724B1B68714A43F4802373
:10184C0013606F4B1B686E4A43F4803313600BE0DC
:10185C006B4B1B686A4A23F480331360684B1B681C
:10186C00674A23F4802313607B685B68002B13D0DA
:10187C00FFF75EF8386108E0FFF75AF802463B695B
:10188C00D31A642B01D9032300E25D4B1B6803F4CC
:10189C000033002BF0D014E0FFF74AF8386108E071
:1018AC00FFF746F802463B69D31A642B01D9032390
:1018BC00ECE1534B1B6803F40033002BF0D100E038
:1018CC0000BF7B681B6803F00203002B63D04C4BFA
:1018DC005B6803F00C03002B0BD0494B5B6803F0E7
:1018EC000C03082B1CD1464B5B6803F48033002B94
:1018FC0016D1434B1B6803F00203002B05D07B6809
:10190C001B69012B01D00123C0E13D4B1B6823F067
:10191C00F8027B685B69DB00394913430B603AE0E2
:10192C007B681B69002B20D0364B01221A60FEF716
:10193C00FFFF386108E0FEF7FBFF02463B69D31A54
:10194C00022B01D90323A1E12D4B1B6803F00203E9
:10195C00002BF0D02A4B1B6823F0F8027B685B69E4
:10196C00DB00274913430B6015E0264B00221A605D
:10197C00FEF7DEFF386108E0FEF7DAFF02463B694E
:10198C00D31A022B01D9032380E11D4B1B6803F0F2
:10199C000203002BF0D17B681B6803F00803002BBB
:1019AC003AD07B689B69002B19D0174B01221A6027
:1019BC00FEF7BEFF386108E0FEF7BAFF02463B694E
:1019CC00D31A022B01D9032360E10D4B5B6A03F0A0
:1019DC000203002BF0D0012000F0CEFA1CE00A4BE1
:1019EC0000221A60FEF7A4FF38610FE0FEF7A0FF9B
:1019FC0002463B69D31A022B08D9032346E100BFE8
:101A0C00001002400000424280044242924B5B6A4A
:101A1C0003F00203002BE9D17B681B6803F004037D
:101A2C00002B00F0A6800023FB758B4BDB6903F0C9
:101A3C008053002B0DD1884BDB69874A43F08053D0
:101A4C00D361854BDB6903F08053BB60BB6801231A
:101A5C00FB75824B1B6803F48073002B18D17F4BF2
:101A6C001B687E4A43F480731360FEF761FF386194
:101A7C0008E0FEF75DFF02463B69D31A642B01D9DF
:101A8C00032303E1754B1B6803F48073002BF0D028
:101A9C007B68DB68012B06D16F4B1B6A6E4A43F0E7
:101AAC00010313622DE07B68DB68002B0CD16A4BC1
:101ABC001B6A694A23F001031362674B1B6A664A6F
:101ACC0023F0040313621CE07B68DB68052B0CD14C
:101ADC00614B1B6A604A43F0040313625E4B1B6A42
:101AEC005D4A43F0010313620BE05B4B1B6A5A4ADD
:101AFC0023F001031362584B1B6A574A23F004036B
:101B0C0013627B68DB68002B15D0FEF711FF386180
:101B1C000AE0FEF70DFF02463B69D31A41F2883208
:101B2C00934201D90323B1E04B4B1B6A03F0020330
:101B3C00002BEED014E0FEF7FBFE38610AE0FEF756
:101B4C00F7FE02463B69D31A41F28832934201D91F
:101B5C0003239BE0404B1B6A03F00203002BEED1E6
:101B6C00FB7D012B05D13C4BDB693B4A23F08053B9
:101B7C00D3617B68DB69002B00F08780364B5B6898
:101B8C0003F00C03082B61D07B68DB69022B46D178
:101B9C00334B00221A60FEF7CBFE386108E0FEF7EB
:101BAC00C7FE02463B69D31A022B01D903236DE011
:101BBC00294B1B6803F00073002BF0D17B681B6A68
:101BCC00B3F5803F08D1244B5B6823F400327B686B
:101BDC009B68214913434B601F4B5B6823F47412C1
:101BEC007B68196A7B685B6A0B431B4913434B6028
:101BFC001B4B01221A60FEF79BFE386108E0FEF7D2
:101C0C0097FE02463B69D31A022B01D903233DE010
:101C1C00114B1B6803F00073002BF0D035E0104B18
:101C2C0000221A60FEF784FE386108E0FEF780FEA1
:101C3C0002463B69D31A022B01D9032326E0064B3B
:101C4C001B6803F00073002BF0D11EE07B68DB698E
:101C5C00012B07D1012319E0001002400070004055
:101C6C00600042420B4B5B68FB60FB6803F4803204
:101C7C007B681B6A9A4206D1FB6803F470127B687E
:101C8C005B6A9A4201D0012300E000231846183702
:101C9C00BD4680BD0010024080B584B000AF7860B6
:101CAC0039607B68002B01D10123D0E06A4B1B68A3
:101CBC0003F007033A689A4210D9674B1B6823F06C
:101CCC00070265493B6813430B60634B1B6803F0C9
:101CDC0007033A689A4201D00123B8E07B681B687D
:101CEC0003F00203002B20D07B681B6803F0040375
:101CFC00002B05D0594B5B68584A43F4E0635360A2
:101D0C007B681B6803F00803002B05D0534B5B6802
:101D1C00524A43F460535360504B5B6823F0F0021B
:101D2C007B689B684D4913434B607B681B6803F0D1
:101D3C000103002B40D07B685B68012B07D1474B1C
:101D4C001B6803F40033002B15D101237FE07B6863
:101D5C005B68022B07D1414B1B6803F00073002B0F
:101D6C0009D1012373E03D4B1B6803F00203002BE8
:101D7C0001D101236BE0394B5B6823F003027B68D4
:101D8C005B68364913434B60FEF7D2FDF8600AE0FE
:101D9C00FEF7CEFD0246FB68D31A41F2883293421D
:101DAC0001D9032353E02D4B5B6803F00C027B68D5
:101DBC005B689B009A42EBD1274B1B6803F007032F
:101DCC003A689A4210D2244B1B6823F0070222492E
:101DDC003B6813430B60204B1B6803F007033A6806
:101DEC009A4201D0012332E07B681B6803F00403A4
:101DFC00002B08D0194B5B6823F4E0627B68DB682E
:101E0C00164913434B607B681B6803F00803002BD7
:101E1C0009D0124B5B6823F460527B681B69DB00B2
:101E2C000E4913434B6000F021F802460B4B5B68E4
:101E3C001B0903F00F030A49CB5C22FA03F3094A8E
:101E4C001360094B1B681846FEF730FD002318463B
:101E5C001037BD4680BD00BF00200240001002407C
:101E6C0004340008000000200400002080B487B077
:101E7C0000AF0023FB600023BB6000237B610023C9
:101E8C007B6000233B611E4B5B68FB60FB6803F0CF
:101E9C000C03042B02D0082B03D027E0194B3B6119
:101EAC0027E0FB689B0C03F00F03174AD35C7B60A5
:101EBC00FB6803F48033002B10D0114B5B685B0C78
:101ECC0003F00103114AD35CBB607B680D4A03FB32
:101EDC0002F2BB68B2FBF3F37B6104E07B680C4A53
:101EEC0002FB03F37B617B693B6102E0054B3B61C9
:101EFC0000BF3B6918461C37BD4680BC704700BF0D
:101F0C000010024000127A001C3400082C34000827
:101F1C0000093D0080B400AF024B1B681846BD465B
:101F2C0080BC70470000002080B500AFFFF7F2FFC7
:101F3C000246054B5B681B0A03F007030349CB5CA5
:101F4C0022FA03F3184680BD001002401434000836
:101F5C0080B500AFFFF7DEFF0246054B5B68DB0A7E
:101F6C0003F007030349CB5C22FA03F3184680BD48
:101F7C00001002401434000880B485B000AF7860C3
:101F8C000A4B1B680A4AA2FB03235B0A7A6802FB12
:101F9C0003F3FB6000BFFB685A1EFA60002BF9D1FB
:101FAC0000BF00BF1437BD4680BC70470000002046
:101FBC00D34D621080B582B000AF78607B68002B87
:101FCC0001D1012342E07B6893F84130DBB2002B56
:101FDC0006D17B68002283F840207868FEF728FB46
:101FEC007B68242283F841207B681B68DA687B6855
:101FFC001B6822F40052DA60786800F02BF87B68DA
:10200C001B681A697B681B6822F490421A617B6812
:10201C001B685A697B681B6822F02A025A617B682C
:10202C001B68DA687B681B6842F40052DA607B68D4
:10203C0000225A647B68202283F841207B6820228E
:10204C0083F842207B6800225A6300231846083725
:10205C00BD4680BD80B584B000AF78607B681B68DE
:10206C001B6923F440517B68DA687B681B680A4360
:10207C001A617B689A687B681B691A437B685B6989
:10208C001343BB607B681B68DB6823F4B05323F0FD
:10209C000C037A681268B9680B43D3607B681B68C1
:1020AC005B6923F440717B689A697B681B680A43FF
:1020BC005A617B681B682C4A934203D1FFF748FF97
:1020CC00F86002E0FFF730FFF860FA6813469B00F7
:1020DC0013449A001A447B685B689B00B2FBF3F3D1
:1020EC00224AA2FB03235B091901FA6813469B00E1
:1020FC0013449A001A447B685B689B00B2FBF3F2B2
:10210C001A4BA3FB02035B09642000FB03F3D31AF5
:10211C001B013233154AA2FB03235B0903F0F003C6
:10212C001944FA6813469B0013449A001A447B68BE
:10213C005B689B00B2FBF3F20C4BA3FB02035B0945
:10214C00642000FB03F3D31A1B013233074AA2FBB2
:10215C0003235B0903F00F027B681B680A449A6037
:10216C0000BF1037BD4680BD003801401F85EB51C4
:10217C00002310B50446C0E90033C0E90433836082
:10218C0081814366C2818361194608225C3000F06C
:10219C0028F90D4B246263620C4BA3620C4BE36277
:1021AC000C4B23630C4B9C4206D003F16802944207
:1021BC0002D0D0339C4205D104F15800BDE8104048
:1021CC0000F088B910BD00BF692300088B230008FC
:1021DC00C3230008E723000828010020024A034912
:1021EC00034800F069B800BF0C000020253000083F
:1021FC001C00002041680C4B10B59942044601D0DC
:10220C0000F00AFFA168094B994202D0204600F069
:10221C0003FFE168064B994204D02046BDE810400C
:10222C0000F0FABE10BD00BF280100209001002074
:10223C00F801002010B50B4B0B4C0C4A20461A60D1
:10224C0004210022FFF794FF04F168000122092108
:10225C00FFF78EFF04F1D0000222BDE810401221DE
:10226C00FFF786BF6002002028010020E92100084A
:10227C00014800F030B900BF69020020014800F0AD
:10228C002BB900BF6902002010B50446FFF7F0FF20
:10229C00236A1BB1BDE81040FFF7F0BF044B23626B
:1022AC00044B1B68002BF5D1FFF7C4FFF2E700BF0E
:1022BC0001220008600200202DE9F84307468846F9
:1022CC0014460026D4E90195B9F1010905D5246815
:1022DC00002CF7D13046BDE8F883AB89012B07D928
:1022EC00B5F90E30013303D029463846C0470643B2
:1022FC006835E9E70FB407B5064904AB086853F82D
:10230C00042B8168019300F05FFB03B05DF804EBD4
:10231C0004B07047180000200EB46FF0004110B5E7
:10232C0000249DB01FAB02900690079104910948C0
:10233C00094953F8042B0591006802A901931B94D9
:10234C0000F01EFA029B1C701DB0BDE8104003B0DB
:10235C00704700BF180000200802FFFF10B50C46A4
:10236C00B1F90E1000F068F80028ABBF636DA389BB
:10237C001B1823F48053ACBF6365A38110BD2DE9FA
:10238C00F0411F468B890546DB050C46164605D5E4
:10239C0002230022B1F90E1000F03CF8A38932465A
:1023AC0023F48053A38128463B46B4F90E10BDE8B4
:1023BC00F04100F053B810B50C46B1F90E1000F016
:1023CC0029F8431CA38915BF606523F4805343F49B
:1023DC008053A38118BFA38110BDB1F90E1000F07A
:1023EC0009B803460244934200D1704703F8011B1D
:1023FC00F9E7000038B50023054D044608462B606C
:10240C00FEF7ABF9431C02D12B6803B1236038BD36
:10241C006402002038B50446084611460022054DDA
:10242C002A601A46FEF7BDF9431C02D12B6803B192
:10243C00236038BD6402002038B5044608461146B6
:10244C000022054D2A601A46FEF76AF9431C02D198
:10245C002B6803B1236038BD6402002038B50446F4
:10246C00084611460022054D2A601A46FDF75CFF0E
:10247C00431C02D12B6803B1236038BD64020020D9
:10248C00014B1868704700BF1800002070B500267B
:10249C000C4D0D4C641BA410A64209D100F078FF22
:1024AC0000260A4D0A4C641BA410A64205D170BD2F
:1024BC0055F8043B98470136EEE755F8043B98472E
:1024CC000136F2E764340008643400086434000810
:1024DC0068340008704770477047000038B50546EF
:1024EC00002940D051F8043C0C1F002BB8BFE41855
:1024FC0000F0DEF81C4A136833B963601460284698
:10250C00BDE8384000F0DAB8A34208D92068211899
:10251C008B4201BF19685B6809182160EDE71A4608
:10252C005B680BB1A342FAD911685018A0420BD1C9
:10253C0020680144501883421160E0D118685B6830
:10254C00084410605360DAE702D90C232B60D6E7FD
:10255C00206821188B4201BF19685B68091821603B
:10256C0063605460CBE738BD7002002070B50F4E2D
:10257C000C463168054611B900F024FE3060214646
:10258C00284600F01FFE431C03D14FF0FF342046B9
:10259C0070BDC41C24F00304A042F8D0211A2846B4
:1025AC0000F010FE0130F2D1EFE700BF6C0200200A
:1025BC002DE9F843CD1C25F0030508350C2D38BF4B
:1025CC000C25002D064601DBA94204D90C233360EF
:1025DC000020BDE8F883DFF8D48000F069F8D8F863
:1025EC0000301C4644BB29463046FFF7BFFF431C56
:1025FC00044658D1D8F800402746002F43D1002C70
:10260C004BD023683946304604EB030900F0DAFD61
:10261C00814542D1216830466D1A2946FFF7A6FF45
:10262C0001303AD023682B442360D8F800305A6824
:10263C0062BBC8F800700FE02268521B20D40B2A32
:10264C0017D96119A342256018BF5960636808BF88
:10265C00C8F8001062514B60304600F02FF804F1BE
:10266C000B00231D20F00700C21A1CBF1B1AA3501D
:10267C00AFE76268A3420CBFC8F800205A60EBE7D2
:10268C0023466468AEE73C467F68B6E71A465B684B
:10269C00A342FBD100235360DEE70C2330463360AA
:1026AC0000F00CF894E70560D6E700BF700200203C
:1026BC000148FFF710BF00BF680200200148FFF778
:1026CC000BBF00BF680200202DE9F0471F468E6843
:1026DC008246BE420C4690460B682DD8B1F90C20B0
:1026EC0012F4906F26D06569096905EB4505A3EBDB
:1026FC00010905EBD5757B1C4B446D109D4238BF11
:10270C001D46530527D52946FFF752FF064660B3F1
:10271C004A46216900F074FDA38923F4906343F0C9
:10272C008003A38126614E4426603E466561A5EB7D
:10273C000905A560BE4200D93E4632464146206896
:10274C0000F026FD0020A3689B1BA3602368334484
:10275C002360BDE8F0872A4600F060FD064600289D
:10276C00E0D150462169FFF7B9FE0C23CAF80030BE
:10277C00A3894FF0FF3043F04003A381E9E7000049
:10278C002DE9F04F98468B8907461B060D461446DB
:10279C009DB010D50B6973B94021FFF709FF286074
:1027AC00286130B90C233B604FF0FF301DB0BDE801
:1027BC00F08F40236B610023099320238DF829307F
:1027CC0030234FF00109CDF80C80DFF898818DF89B
:1027DC002A3023469A4613F8012B0AB1252AF9D13F
:1027EC00BAEB040B0BD05B46224629463846FFF762
:1027FC006BFF013000F0A780099A5A4409929AF8AD
:10280C000030002B00F09F8000234FF0FF32CDE909
:10281C0005230AF1010A049307938DF853301A9398
:10282C005446052214F8011B4E4800F0DBFC049AB8
:10283C00D8B9D00644BF20238DF85330110744BFBC
:10284C002B238DF853309AF800302A2B15D0544690
:10285C0000204FF00A0C079A214611F8013B303B3F
:10286C00092B4BD9B0B1079214E0A0EB080309FA7D
:10287C0003F31343A2460493D2E7039B191D1B6871
:10288C000391002BBBBF5B4242F0020207930793FC
:10289C00B8BF049223782E2B0AD163782A2B32D11D
:1028AC00039B02341A1D1B68039243EAE3730593DE
:1028BC00DFF8B4A003225046217800F093FC38B125
:1028CC004022049BA0EB0A00824013430134049382
:1028DC0014F8011B062225488DF8281000F082FC04
:1028EC00002836D0224B1BBB039B073323F0070376
:1028FC0008330393099B334409936AE70C46012080
:10290C000CFB0232A8E700234FF00A0C19460134E5
:10291C000593204610F8012B303A092A03D9002BD5
:10292C00C6D00591C4E7044601230CFB0121F0E756
:10293C0003AB00932A4638460E4B04A9AFF3008034
:10294C00421C0646D6D1AB895B063FF52DAF0998E4
:10295C002CE703AB00932A463846064B04A900F03B
:10296C00BDF9EDE72E340008343400083834000883
:10297C0000000000D5260008936810B4013B002B22
:10298C00936007DA9469A34201DB0A2902D110BCD7
:10299C0000F06ABB1368581C10601970084610BC14
:1029AC007047F8B506460F461446D518AC4201D10F
:1029BC00002007E03A46304614F8011BFFF7DCFF15
:1029CC00431CF3D1F8BD00002DE9F04F0D46144621
:1029DC00984606469DB018B1036A0BB9FFF754FC34
:1029EC006B6ED90705D4AB899A0502D4A86DFFF795
:1029FC0072FDAB891B0701D52B699BB92946304663
:102A0C0000F070FB70B16B6EDC0704D54FF0FF303B
:102A1C001DB0BDE8F08FAB899805F7D4A86DFFF712
:102A2C005BFDF3E70023099320238DF82930302335
:102A3C004FF00109CDF80C80DFF8A8818DF82A3011
:102A4C0023469A4613F8012B0AB1252AF9D1BAEB81
:102A5C00040B0BD05B46224629463046FFF7A1FFFC
:102A6C00013000F0A780099A5A4409929AF8003074
:102A7C00002B00F09F8000234FF0FF32CDE905239F
:102A8C000AF1010A049307938DF853301A935446B4
:102A9C00052214F8011B534800F0A4FB049AD8B982
:102AAC00D10644BF20238DF85330130744BF2B238A
:102ABC008DF853309AF800302A2B15D0544600204C
:102ACC004FF00A0C079A214611F8013B303B092BB9
:102ADC004BD9B0B1079214E0A0EB080309FA03F349
:102AEC001343A2460493D2E7039B191D1B68039161
:102AFC00002BBBBF5B4242F0020207930793B8BFA7
:102B0C00049223782E2B0AD163782A2B32D1039B83
:102B1C0002341A1D1B68039243EAE3730593DFF832
:102B2C00C8A003225046217800F05CFB38B140224B
:102B3C00049BA0EB0A00824013430134049314F865
:102B4C00011B062229488DF8281000F04BFB0028A9
:102B5C003FD0274B1BBB039B073323F007030833E2
:102B6C000393099B3B4409936AE70C4601200CFB39
:102B7C000232A8E700234FF00A0C194601340593E2
:102B8C00204610F8012B303A092A03D9002BC6D065
:102B9C000591C4E7044601230CFB0121F0E703ABCC
:102BAC0000932A463046134B04A9AFF30080074626
:102BBC00781CD6D16B6ED90705D4AB899A0502D493
:102BCC00A86DFFF789FCAB895B063FF51FAF099831
:102BDC001EE703AB00932A463046064B04A900F0CF
:102BEC007DF8E4E72E34000834340008383400084B
:102BFC0000000000AF2900082DE9F0471646984662
:102C0C008A680B6907469342B8BF1346336091F844
:102C1C0043200C46DDF820900AB101333360236861
:102C2C00990642BF336802333360256815F00605F8
:102C3C0006D104F1190AE36832689B1AAB422BDC0B
:102C4C0094F843302268003B18BF0123920630D41D
:102C5C004146384604F14302C847013023D023686B
:102C6C00226903F00603042B14BF002533684FF0D0
:102C7C00000608BFE56804F11A0408BFED1A54F801
:102C8C00123C08BF25EAE5759342C4BF9B1AED18A8
:102C9C00B5421AD1002008E001235246414638467D
:102CAC00C847013003D14FF0FF30BDE8F087013544
:102CBC00C1E73020E11881F843005A1C94F8451004
:102CCC002244023382F84310C2E7012322464146D4
:102CDC003846C8470130E6D00136D9E72DE9FF4721
:102CEC000F7E9146782F80460C469A460C9E01F139
:102CFC00430207D8622F0AD8002F00F0D180582F3A
:102D0C0000F0B88004F1420684F842703AE0A7F172
:102D1C006303152BF6D801A151F823F0812D00087F
:102D2C00952D0008112D0008112D0008112D0008FB
:102D3C00112D0008952D0008112D0008112D0008EB
:102D4C00112D0008112D0008932E0008BF2D00082E
:102D5C004D2E0008112D0008112D0008B52E00086D
:102D6C00112D0008BF2D0008112D0008112D000891
:102D7C00552E000833681A1D1B68326004F1420698
:102D8C0084F8423001239CE033682068191D3160BF
:102D9C00060601D51D6803E04506FBD5B3F90050C6
:102DAC00002D03DA2D236D4284F843300A23584852
:102DBC0011E021683368080653F8045B02D4490615
:102DCC0048BFADB26F2F336014BF0A23082350489D
:102DDC00002184F843106668002EA66005DB21688C
:102DEC002E4321F0040121604BD01646B5FBF3F1C4
:102DFC0003FB1157C75D06F8017D2F46BB420D46FC
:102E0C00F4D9082B0BD12368DF0708D52369616837
:102E1C009942DEBF302306F8013C06F1FF36921BC7
:102E2C0022614B4621464046CDF800A003AAFFF78D
:102E3C00E3FE01304AD14FF0FF3004B0BDE8F0871B
:102E4C00236843F0200323607827324884F84570C8
:102E5C00236831681F0651F8045B02D45F0648BF33
:102E6C00ADB23160D90744BF43F0200323601DB1DC
:102E7C001023ADE72648E9E7236823F020032360FD
:102E8C00F6E71646BDE733682568181D61693060A2
:102E9C002E061B6801D5196002E06806FBD5198067
:102EAC00002316462361BCE7336800211A1D3260EB
:102EBC001E686268304600F095F908B1801B6060AE
:102ECC0063682361002384F84330AAE732464946FD
:102EDC0040462369D0470130ADD023689B0713D4FB
:102EEC00E068039B9842B8BF1846A6E70123324618
:102EFC0049464046D04701309DD00135E3680399DF
:102F0C005B1AAB42F2DCEBE7002504F11906F5E79E
:102F1C003F34000850340008B1F90C20F8B51607FE
:102F2C0005460C4654D44B68002B02DC0B6C002B72
:102F3C0048DDE66A002E45D0002312F480522F683B
:102F4C00216A2B6030D0626DA389590705D563685F
:102F5C00D21A636B0BB1236CD21A00232846E66A93
:102F6C00216AB047431CA38906D129681D292BD897
:102F7C00284ACA40D60727D5002262602269D904A4
:102F8C00226004D5421C01D12B6803B96065616BCA
:102F9C002F60B9B104F14403994202D02846FFF7DF
:102FAC009DFA002363630DE001232846B0470246D7
:102FBC00501CC9D12B68002BC6D01D2B01D0162B51
:102FCC001DD12F60002021E043F040031BB21AE01A
:102FDC000F69002FF6D0930718BF00230E6808BFA7
:102FEC004B69F61B0F608B60002EEBDD33463A46C7
:102FFC002846216AD4F828C0E047002807DCB4F939
:10300C000C3043F040034FF0FF30A381F8BD074470
:10301C00361AE9E70100402038B50B6905460C4625
:10302C0013B90025284638BD18B1036A0BB9FFF750
:10303C002BF9B4F90C30002BF3D0626ED00704D40A
:10304C00990502D4A06DFFF746FA28462146FFF7F2
:10305C0063FF636E0546DA07E4D4A3899B05E1D4CC
:10306C00A06DFFF739FADDE7F8B50E4614460546B4
:10307C0018B1036A0BB9FFF707F9A369A360A38919
:10308C001A0701D5236943B92146284600F02AF8CE
:10309C0018B14FF0FF373846F8BD23682269F6B2F5
:1030AC00981A63693746834205DC21462846FFF7A8
:1030BC00B3FF0028EDD1A368013BA36023685A1C21
:1030CC0022601E706269431C9A4204D0A389DB07FC
:1030DC00E1D50A2EDFD121462846FFF79DFF0028B7
:1030EC00D9D0D6E738B5294B054618680C4618B127
:1030FC00036A0BB9FFF7C8F8B4F90C30190722D4DE
:10310C00DA0607D409222A6043F040034FF0FF305F
:10311C00A38133E0580712D5616B41B104F144032C
:10312C00994202D02846FFF7D9F900236363A3899B
:10313C0023F02403A3810023636023692360A38904
:10314C0043F00803A38123694BB9A38903F42073CB
:10315C00B3F5007F03D02146284600F0B2F8B4F94D
:10316C000C3013F001020AD00022A26062695242B4
:10317C00A261226942B913F08000C5D138BD99070C
:10318C0058BF6269A260F4E70020F7E7180000203E
:10319C00884210B501EB020402D98442234607D8B9
:1031AC00431EA14208D011F8012B03F8012FF8E7B8
:1031BC00014602448A4200D110BD13F8014D02F8B9
:1031CC00014DF7E738B50023054D044608462B6042
:1031DC00FDF7F4FA431C02D12B6803B1236038BD10
:1031EC0064020020034610B5C9B20244934218464B
:1031FC0001D1002003E0047801338C42F6D110BDDC
:10320C000A44914200F1FF3300D1704710B511F818
:10321C00014B914203F8014FF9D110BD2DE9F0415A
:10322C00074614460D4621B91146BDE8F041FFF79B
:10323C00BFB92AB9FFF752F925462846BDE8F081F7
:10324C0000F09EF88442064602D8B4EB500FF4D836
:10325C0021463846FFF7ACF9804608B94546ECE7FD
:10326C00B4422246294628BF3246FFF7C9FF2946F9
:10327C003846FFF733F9F1E770B50C46B1F90E108B
:10328C00154600291E4696B00CDAA389002113F0CE
:10329C00800F14BF40234FF48063002031602B60FB
:1032AC0016B070BD6A4600F049F80028EDDB0199B4
:1032BC0001F47041A1F50053594259414FF4806318
:1032CC00EBE78B89F7B59D0706460C4607D504F14D
:1032DC004703236023610123636103B0F0BD6A4699
:1032EC0001ABFFF7C9FF009F054639463046FFF793
:1032FC005FF948B9B4F90C309A05EED423F0030306
:10330C0043F00203A381E2E7A389C4E9040743F075
:10331C008003A381019B20605BB13046B4F90E1091
:10332C0000F01EF828B1A38923F0030343F0010336
:10333C00A381A3891D43A581CFE7000038B50023E5
:10334C00064D0446084611462B60FDF711FA431C46
:10335C0002D12B6803B1236038BD00BF640200208A
:10336C0038B50023054D044608462B60FDF70FFACF
:10337C00431C02D12B6803B1236038BD64020020CA
:10338C0051F8043C181F002BBCBF0B58C0187047D9
:10339C00F8B500BFF8BC08BC9E467047F8B500BF36
:0833AC00F8BC08BC9E46704706
:1033B400257328293A2053544D3332463130332073
:1033C400426C756570696C6C2077697468204C4335
:1033D400442D4932432054657374200D0A000000C3
:1033E40048656C6C6F2053544D333200436F756ED7
:1033F400743A20256C6400006D61696E0000000061
:103404000000000000000000010203040607080990
:103414000000000001020304020304050607080972
:103424000A0B0C0D0E0F10100102232D302B20005F
:10343400686C4C006566674546470030313233346A
:10344400353637383941424344454600303132330A
:1034540034353637383961626364656600000000CC
:04346400310100082A
:043468000D0100084A
:10346C0000127A00100000000100000000000000B3
:10347C0003000000280100201C00002000000000B8
:10348C002801002090010020F8010020000000001D
:10349C000000000000000000000000000000000020
:1034AC000000000000000000000000000000000010
:1034BC000000000000000000000000000000000000
:0834CC000000000000000000F8
:0400000508000841A6
:00000001FF
